S01700004763634170706C69636174696F6E312E737265635B
S11300000C9434000C946A000C943E000C943E0052
S11300100C943E000C943E000C943E000C943E0064
S11300200C943E000C943E000C943E000C943E0054
S11300300C943E000C943E000C943E000C943E0044
S11300400C943E000C943E000C943E000C943E0034
S11300500C943E000C943E000C943E000C943E0024
S11300600C943E000C943E0011241FBECFEFD8E048
S1130070DEBFCDBF0E9440000C94BA000C94000077
S11300808FEF84B91AB881E0809369008DBB7894AE
S113009084E085B92FEF83ED90E3215080409040B8
S11300A0E1F700C0000082E085B92FEF83ED90E313
S11300B0215080409040E1F700C0000081E085B904
S11300C02FEF83ED90E3215080409040E1F700C092
S11300D00000DECF1F920F920FB60F9211242F93C0
S11300E03F938F939F9387E085B92FEF31EE94E090
S11300F0215030409040E1F700C0000015B82FEFC8
S113010031EE94E0215030409040E1F700C000000F
S113011085B92FEF31EE94E0215030409040E1F763
S113012000C0000015B82FEF31EE94E021503040AC
S11301309040E1F700C0000085B92FEF34E38CE074
S1130140215030408040E1F700C0000015B89FEF17
S113015023ED30E3915020403040E1F700C000002F
S1130160F8949F918F913F912F910F900FBE0F9014
S10B01701F901895F894FFCFCD
S9030000FC
