:100000000C9434000C943E000C943E000C943E0082
:100010000C943E000C943E000C943E000C943E0068
:100020000C943E000C943E000C943E000C943E0058
:100030000C943E000C944F000C943E000C943E0037
:100040000C943E000C943E000C943E000C943E0038
:100050000C943E000C943E000C943E000C943E0028
:100060000C943E000C943E0011241FBECFEFD8E04C
:10007000DEBFCDBF0E9440000C945E000C940000D7
:100080008FEF84B915B8109285001092840081E03A
:1000900080936F0084E0809381007894FFCF1F925B
:1000A0000F920FB60F9211248F9385B1809585B969
:1000B0008F910F900FBE0F901F901895F894FFCF5F
:00000001FF
