:100000000C9434000C943E000C943E000C943E0082
:100010000C943E000C943E000C943E000C943E0068
:100020000C943E000C943E000C943E000C945F0037
:100030000C943E000C943E000C943E000C943E0048
:100040000C943E000C943E000C943E000C943E0038
:100050000C943E000C943E000C943E000C943E0028
:100060000C943E000C943E0011241FBECFEFD8E04C
:10007000DEBFCDBF0E9440000C9480000C940000B5
:100080008FEF84B98AB985B980E4809380008CE0D1
:100090008093810082E080936F001092850010921F
:1000A000840080E09DE7909389008093880080E041
:1000B00099E190938B0080938A007894FFCF1F92F0
:1000C0000F920FB60F9211248F939F938BB180954F
:1000D0008BB98BB18F3F39F488EE93E09093890010
:1000E0008093880006C088EF97EA909389008093F8
:1000F00088009F918F910F900FBE0F901F901895C1
:04010000F894FFCFA1
:00000001FF
