S010000050524143544943452E73726563C9
S11300000C9434000C9467000C9446000C94460045
S11300100C9446000C9446000C9446000C94460044
S11300200C9446000C9446000C9446000C94460034
S11300300C9446000C9446000C9446000C94460024
S11300400C9446000C9446000C9446000C94460014
S11300500C9446000C9446000C9446000C94460004
S11300600C9446000C94460011241FBECFEFD8E038
S1130070DEBFCDBF21E0A0E0B1E001C01D92A430FD
S1130080B207E1F70E9448000C94C7000C940000EA
S11300908FEF84B9109285001092840087E88093D2
S11300A07A0080E480937C0081E0809369008DBBBA
S11300B0789483EA8093800089E0809381008FEFB5
S11300C093E0909387008093860015B8FECF1F922B
S11300D00F920FB60F9211248F939F93EF93FF9378
S11300E08091020190910301009739F58FE090E02F
S11300F09093890080938800EAE7F0E0808180642F
S1130100808380917A0086FDFCCF8091780090E016
S113011090938900809388008091790090E0909377
S113012001018093000180910201909103010196E5
S1130130909303018093020121C0892BF1F08FE099
S113014090E090938B0080938A00EAE7F0E080814E
S11301508064808380917A0086FDFCCF8091780052
S113016090E090938B0080938A008091790090E0D6
S1130170909301018093000101C015B8FF91EF91A4
S11301809F918F910F900FBE0F901F901895F89428
S1050190FFCF9B
S9030000FC
