S00C00006C6162342E73726563B5
S11300000C9434000C943E000C943E000C943E007E
S11300100C943E000C943E000C943E000C943E0064
S11300200C943E000C943E000C943E000C943E0054
S11300300C943E000C943E000C943E000C943E0044
S11300400C943E000C943E000C943E000C943E0034
S11300500C943E000C943E000C943E000C943E0024
S11300600C943E000C943E0011241FBECFEFD8E048
S1130070DEBFCDBF0E9440000C9453000C940000DE
S11300808FEF84B9109285001092840089E09DE37B
S1130090909389008093880080E4809380008DE0B1
S10D00A080938100FFCFF894FFCF96
S9030000FC
