:100000000C9434000C943E000C943E000C943E0082
:100010000C943E000C943E000C943E000C943E0068
:100020000C943E000C943E000C943E000C943E0058
:100030000C943E000C943E000C943E000C943E0048
:100040000C943E000C943E000C943E000C943E0038
:100050000C943E000C943E000C943E000C943E0028
:100060000C943E000C943E0011241FBECFEFD8E04C
:10007000DEBFCDBF0E9440000C9465000C940000D0
:1000800014B81092850010928400A8E8B0E089E0CE
:100090009DE311969C938E93E0E8F0E080E48083EA
:1000A0008DE0809381008081826080838081806880
:1000B0008083E6E8F0E088E09DE39183808380819F
:0E00C000918111969C938E93FFCFF894FFCF01
:00000001FF
