S01700004763634170706C69636174696F6E322E737265635A
S11300000C9434000C9414010C9446000C94460097
S11300100C9446000C9446000C9446000C94460044
S11300200C9446000C9446000C9446000C94460034
S11300300C9446000C9446000C9446000C94460024
S11300400C9446000C9446000C9446000C94460014
S11300500C9446000C9446000C9446000C94460004
S11300600C9446000C94460011241FBECFEFD8E038
S1130070DEBFCDBF21E0A0E0B1E001C01D92A13000
S1130080B207E1F70E94BF000C942B010C9400000E
S113009089E780930001EAE7F0E08081806480834F
S11300A0E8E8F0E0808191810A96918380832FEFC4
S11300B080E792E0215080409040E1F700C00000CA
S11300C02081318180917800909179000024969567
S11300D087950794969587950794982F802D2817D0
S11300E0390738F08FE090E090938900809388007E
S11300F0789408958EE680930001EAE7F0E0808129
S11301008064808380917800909179000024969592
S113011087950794969587950794982F802D9093AB
S1130120890080938800E8E8F0E0808191810A9753
S1130130918380832FEF80E792E0215080409040AC
S1130140E1F700C00000AAE7B0E08C9180648C93D2
S113015080819181409738F780917800909179005F
S11301600024969587950794969587950794982FDC
S1130170802D90938900809388007894D4CF8FEF5A
S113018084B9109285001092840081E08DBB809325
S113019069008AB11AB8789487E880937A0010923B
S11301A07B0010927C0017B883E88093800089E07C
S11301B0809381008FEF93E0909387008093860073
S11301C08FE090E09093890080938800EAE7F0E064
S11301D0808180648083E8E8F0E0808191810A96E0
S11301E0918380832FEF80E792E0215080409040FC
S11301F0E1F700C000002081318180917800909166
S11302007900002496958795079496958795079489
S1130210982F802D28173907C8F28FE090E090932B
S1130220890080938800D2CF1F920F920FB60F924D
S1130230112487E880937A0010927B0010927C004E
S113024017B880910001893711F40E947A000E9446
S10D02504800F894EECFF894FFCFB5
S9030000FC
