S00F00004C4142202D20362E73726563A3
S11300000C9434000C9446000C9446000C94460066
S11300100C9446000C9446000C9446000C94460044
S11300200C9446000C9446000C9446000C94460034
S11300300C9446000C9446000C9446000C94460024
S11300400C9446000C9446000C9446000C94460014
S11300500C9446000C9446000C9446000C94460004
S11300600C9446000C94460011241FBECFEFD8E038
S1130070DEBFCDBF21E0A0E0B1E001C01D92A230FF
S1130080B207E1F70E944F000C946B000C9400003F
S113009087E880937A0080E480937C0008958FEF52
S11300A08AB90E944800EAE7F0E080818064808396
S11300B080917A0086FDFCCF8091780090E0909347
S11300C08900809388008091790090E090930101E9
S10D00D080930001E8CFF894FFCFFD
S9030000FC
