S01700004763634170706C69636174696F6E312E737265635B
S11300000C9434000C9467000C9446000C94460045
S11300100C9446000C9446000C9446000C94460044
S11300200C9446000C9446000C9446000C94460034
S11300300C9446000C9446000C9446000C94460024
S11300400C9446000C9446000C9446000C94460014
S11300500C9446000C9446000C9446000C94460004
S11300600C9446000C94460011241FBECFEFD8E038
S1130070DEBFCDBF21E0A0E0B1E001C01D92A230FF
S1130080B207E1F70E944F000C9471000C94000039
S113009087E880937A0080E480937C0008958FEF52
S11300A08AB90E944800EAE7F0E080818064808396
S11300B080917A0086FDFCCF809178008BB9809185
S11300C0790090E09093010180930001ECCF1F929E
S11300D00F920FB60F9211240F900FBE0F901F9026
S10900E01895F894FFCF0F
S9030000FC
