S00C00006C6162352E73726563B4
S11300000C9434000C943E000C943E000C943E007E
S11300100C943E000C943E000C943E000C943E0064
S11300200C943E000C943E000C943E000C943E0054
S11300300C943E000C943E000C943E000C943E0044
S11300400C943E000C943E000C943E000C943E0034
S11300500C943E000C943E000C943E000C943E0024
S11300600C943E000C943E0011241FBECFEFD8E048
S1130070DEBFCDBF0E9440000C9475000C940000BC
S11300808FEF84B98AB9109285001092840083E8B6
S11300908093800089E0809381008FEF93E09093B8
S11300A08700809386008FE090E09093890080938E
S11300B08800E8E8F0E0808191810A96918380834A
S11300C02FEF80E792E0215080409040E1F700C09C
S11300D00000808191818F3F934058F38FE090E03E
S11100E09093890080938800E4CFF894FFCFBA
S9030000FC
